:020000040000FA
:040000004DEF2DF0A3
:08000800006EF80BE832E8324B
:10001000E83203D8006EEF141200000EFA6EFB6A8D
:1000200000340E0BF926010C020C040C080C100C09
:10003000200C400C800C0050D8A0E86AEF18001487
:10004000EF1A1200EFCFF3FFE82AF332E82EFDD7C4
:10005000010ED8A0000E1200016AFE0F006E000013
:1000600000D000D0E86A015AD8A01200000600D0E3
:1000700000D0F5D7106A116A126A136A0A6A0B6A0D
:100080000C6A0D6A09500810071006102CE0200EAB
:10009000F36ED89000360136023603360A360B3638
:1000A0000C360D3609500D5C08E108500C5C05E17A
:1000B00007500B5C02E106500A5C0FE306500A5E33
:1000C0000750D8A0073C0B5E0850D8A0083C0C5E37
:1000D0000950D8A0093C0D5ED88010361136123672
:1000E0001336F32ED6D71200076A066A100E106E6A
:1000F0000134063607360450065E0550D8A0053C8C
:10010000075E07E2045006260550D8B0053C0726D6
:10011000D89000360136102EEBD700501200200E7A
:10012000106E0A6A0B6A0C6A0D6AD89000A00ED095
:1001300006500A260750D8B0073C0B260850D8B006
:10014000083C0C260950D8B0093C0D260D320C3263
:100150000B320A320332023201320032102EE5D75E
:10016000120011500C6E15180F6E145053E01052FF
:1001700054E0105E7F0E03E2102603E24DD01026FD
:100180004EE213C00AF012C00BF00C8E158E180E42
:100190000E6E136A126A116A0BD017500A5C165061
:1001A0000B5811E30B6E0C6A17500A5E0BD004E279
:1001B00015500C5CF2E007E317500A5E16500B5A1C
:1001C00015500C5AD8801336123611360A360B36B3
:1001D0000C360E2EECD711BE07D010521DE00F3298
:1001E00010060E2A0F36E3D718AC1FD007E21750BF
:1001F0000A5E16500B5A15500C5A17E3133E15D0D1
:10020000123E13D0113E11D0113212321332103E71
:100210000CD005D0188604D01884106A02D0188239
:100220001068136A126A800E116E0FAE119E135081
:10023000120011C00FF07F0E105C0E6E32E3118EB3
:10024000106A0A6A17080E6E0BE2080E0E262BE3E0
:1002500011C010F012C011F013C012F0136A0CD0CC
:10026000080E0E5E08E313C00AF012C013F011C0AE
:1002700012F0116AF5D70E260E5208E0D89010320F
:100280001132123213320A320E2EF8D710BE0BD0B2
:100290000FAE10D0D880000E1356125611561056BD
:1002A00009D0000E02D01882FF0E106E116E126E71
:1002B000136E109E13501200126A136A10C000F0E1
:1002C00013C010F000C013F012C000F011C012F003
:1002D00000C011F0960E0E6E0F6A10AE07D0D880D7
:1002E000000E13561256115610560F8E105218E06B
:1002F00018AC0DD013AE0BD0123E09D0113E07D072
:10030000103E05D0D8801032113212320E2A080E5B
:100310000E2612C013F011C012F010C011F015D04B
:10032000116613D0080E0E5E125005E1080E0E5E27
:10033000135011E0136A116E13C012F0136A05D046
:10034000D8901336123611360E0611AEF9D70EC0FC
:1003500010F00FAE119E1350120078F01E3CF0E02A
:100360000F1EE0C1070FC18383078307C183070FF7
:10037000E0C10F1EF0E01E0000F0DCFFFF77580028
:10038000003450D11715405114054151F405435123
:10039000148447DFF7C54F0000E45ED117F55C1900
:1003A0001175581511355013511540D1F7054100FD
:1003B0000004C3FFFF87070000C00F1EF0E01E3CD3
:1003C00078F03C783C7878F01E3CF0E00F1EE0C1FD
:1003D000070FC18383078307C1833C783C7878F09B
:1003E0001E3CF0E00F1EE0C1070FC18383078307A7
:1003F000C183070FE0C10F0000E0DEFFFFF75C00E4
:10040000007458D11735505114154051F40541511D
:10041000140443DFF785470000C44FD117E55E1988
:1004200011F55C1511755813513550D1F715400071
:100430000004C1FFFF0703000080070FE0C10F1E8B
:10044000F0E01E3C78F03C783C7878F01E3CF0E020
:100450000F1EE0C1070FC18383071E3C78F03C7874
:100460003C7878F01E3CF0E00F1EE0C1070FC1831E
:1004700083078307C183070000C0CFFFFFE75E004B
:1004800000F45CD11775585114355051F415405192
:10049000140441DFF7054300008447D117C54F1905
:1004A00011E55E1511F55C13517558D1F735500003
:1004B0000014C0FFFF07010000008307C183070F7E
:1004C000E0C10F1EF0E01E3C78F03C783C7878F0FC
:1004D0001E3CF0E00F1EE0C1070F0F1EF0E01E3CB7
:1004E00078F03C783C7878F01E3CF0E00F1EE0C1DC
:1004F000070FC183830703000080C7FFFFC74F00BA
:1005000000E45ED117F55C5114755851F435505123
:10051000141440DFF7054100000443D11785471943
:1005200011C54F1511E55E1351F55CD1F7755800F3
:100530000034D0FFFF1700000000C183830783074A
:10054000C183070FE0C10F1EF0E01E3C78F03C783D
:100550003C7878F01E3CF0E00F1E070FE0C10F1E44
:10056000F0E01E3C78F03C783C7878F01E3CF0E0FF
:100570000F1EE0C1070F01000000C3FFFF87470007
:1005800000C44FD117E55E5114F55C51F475585114
:10059000143450DFF7154000000441D1170543190A
:1005A0001185471511C54F1351E55ED1F7F55C0074
:1005B0000074D8FFFF3710000010E0C1070FC1839F
:1005C00083078307C183070FE0C10F1EF0E01E3CC5
:1005D00078F03C783C7878F01E3C8307C183070FA5
:1005E000E0C10F1EF0E01E3C78F03C783C7878F0DB
:1005F0001E3CF0E00F1E00000000C1FFFF0743009B
:10060000008447D117C54F5114E55E51F4F55C5194
:10061000147458DFF7355000001440D11705411904
:10062000110543151185471351C54FD1F7E55E00FC
:1006300000F4DCFFFF7718000030F0E00F1EE0C18F
:10064000070FC18383078307C183070FE0C10F1E14
:10065000F0E01E3C78F03C783C78C1838307830748
:10066000C183070FE0C10F1EF0E01E3C78F03C781C
:100670003C7878F01E3C10000010C0FFFF074100DE
:10068000000443D11785475114C54F51F4E55E511D
:1006900014F45CDFF7755800003450D11715401979
:1006A0001105411511054313518547D1F7C54F0079
:1006B00000E4DEFFFFF71C00007078F01E3CF0E065
:1006C0000F1EE0C1070FC18383078307C183070F94
:1006D000E0C10F1EF0E01E3C78F0E0C1070FC183BF
:1006E00083078307C183070FE0C10F1EF0E01E3CA4
:1006F00078F03C783C7818000030D0FFFF174000BD
:10070000000441D11705435114854751F4C54F5199
:1007100014E45EDFF7F55C00007458D1173550190A
:100720001115401511054113510543D1F7854700B7
:1007300000C4CFFFFFE71E0000F03C783C7878F063
:100740001E3CF0E00F1EE0C1070FC1838307830743
:10075000C183070FE0C10F1EF0E0F0E00F1EE0C103
:10076000070FC18383078307C183070FE0C10F1EF3
:10077000F0E01E3C78F01C000070D8FFFF375000FE
:10078000001440D11705415114054351F4854751D8
:1007900014C44FDFF7E55E0000F45CD117755819FB
:1007A0001135501511154013510541D1F70543007E
:1007B0000084C7FFFFC70F0000E01E3C78F03C78C4
:1007C0003C7878F01E3CF0E00F1EE0C1070FC183BB
:1007D00083078307C183070FE0C183070F1EC1830F
:1007E000070FE0C18307F0E0C18378F0E0C13C006F
:1007F00000E01EFEFFF00F02807807FABE3C831275
:10080000821EC122820EE0428206F0FABE82780287
:1008100080C03C8ABEE01E8AA2F00FFAA2781E8A2F
:10082000A2F03C8ABEE0780280C0F0FABE82E00A04
:100830008A06C11A8A0E830A8A1E07FABA3C0F0278
:1008400080781EFEFFF03C0000E078F0E0C1F0E0B0
:10085000C183E0C18307C183070FC183070FE0C1D4
:100860008307F0E0C18378F0E0C13C78F0E01E003F
:1008700000F00FFEFF780702803C83FABE1EC11213
:10088000820EE0228206F042828278FABEC03C02EA
:1008900080E01E8ABEF00F8AA27807FAA23C0F8A77
:1008A000A2781E8ABEF03C0280E078FABEC0F00A50
:1008B0008A82E01A8A06C10A8A0E83FABA1E0702E1
:1008C000803C0FFEFF781E0000F03C78F0E078F0EE
:1008D000E0C1F0E0C183E0C18307E0C18307F0E03D
:1008E000C18378F0E0C13C78F0E01E3C78F00F0066
:1008F000007807FEFF3C8302801EC1FABE0EE012A4
:100900008206F0228282784282C03CFABEE01E0259
:1009100080F00F8ABE78078AA23C83FAA21E078A5B
:10092000A23C0F8ABE781E0280F03CFABEE0780A34
:100930008AC0F01A8A82E00A8A06C1FABA0E8302D5
:10094000801E07FEFF3C0F0000781E3C78F03C78CC
:10095000F0E078F0E0C1F0E0C183F0E0C18378F02E
:10096000E0C13C78F0E01E3C78F00F1E3C780700B8
:10097000003C83FEFF1EC102800EE0FABE06F012AC
:100980008282782282C03C4282E01EFABEF00F02D0
:100990008078078ABE3C838AA21EC1FAA20E838A8F
:1009A000A21E078ABE3C0F0280781EFABEF03C0AE7
:1009B0008AE0781A8AC0F00A8A82E0FABA06C1028E
:1009C000800E83FEFF1E0700003C0F1E3C781E3C7D
:1009D00078F03C78F0E078F0E0C178F0E0C13C7865
:1009E000F0E01E3C78F00F1E3C78070F1E3C8300A1
:1009F000001EC1FEFF0EE0028006F0FABE827812F1
:100A000082C03C2282E01E4282F00FFABE780702CA
:100A1000803C838ABE1EC18AA20EE0FAA206C18A69
:100A2000A20E838ABE1E0702803C0FFABE781E0A01
:100A30008AF03C1A8AE0780A8AC0F0FABA82E002A8
:100A40008006C1FEFF0E8300001E070F1E3C0F1E16
:100A50003C781E3C78F03C78F0E03C78F0E01E3CBE
:100A600078F00F1E3C78070F1E3C83070F1EC10055
:100A7000000EE0FEFF06F002808278FABEC03C1253
:100A800082E01E2282F00F42827807FABE3C830287
:100A9000801EC18ABE0EE08AA206F0FAA282E08A17
:100AA000A206C18ABE0E8302801E07FABE3C0F0A50
:100AB0008A781E1A8AF03C0A8AE078FABAC0F002F4
:100AC0008082E0FEFF06C100000E83070F1E070FA5
:100AD0001E3C0F1E3C781E3C78F01E3C78F00F1E2A
:100AE0003C78070F1E3C83070F1EC183070FE000F1
:100AF0000006F0FEFF82780280C03CFABEE01E12C3
:100B000082F00F2282780742823C83FABE1EC10225
:100B1000800EE08ABE06F08AA28278FAA2C0F08A2D
:100B2000A282E08ABE06C102800E83FABE1E070AB8
:100B30008A3C0F1A8A781E0A8AF03CFABAE07802D8
:100B400080C0F0FEFF82E0000006C183070F83072C
:100B50000F1E070F1E3C0F1E3C780F1E3C78070F20
:100B60001E3C83070F1EC183070FE0C18307F000FF
:100B7000008278FEFFC03C0280E01EFABEF00F1239
:100B800082780722823C8342821EC1FABE0EE002B6
:100B90008006F08ABE82788AA2C03CFAA2E0788AF7
:100BA000A2C0F08ABE82E0028006C1FABE0E830AAD
:100BB0008A1E071A8A3C0F0A8A781EFABAF03C028B
:100BC00080E078FEFFC0F0000082E0C18307C183AF
:100BD000070F83070F1E070F1E3C070F1E3C8307DE
:100BE0000F1EC183070FE0C18307F0E0C1837800C7
:100BF00000C03CFEFFE01E0280F00FFABE78071234
:100C0000823C8322821EC142820EE0FABE06F002BE
:100C10008082788ABEC03C8AA2E01EFAA2F03C8A9A
:100C2000A2E0788ABEC0F0028082E0FABE06C10A65
:100C30008A0E831A8A1E070A8A3C0FFABA781E02A5
:100C400080F03CFEFFE0780000C0F0E0C183E0C12E
:100C50008307C183070F83070F1EC183E0C1E0C173
:100C6000C183F0E0830778F0070F3C780F1E1E3C2D
:100C70001E3C0F1E3C78070F78F0030000E0E1FFF8
:100C8000FFC320000082A0EF8B02A88AC80AAC88AC
:100C9000A81AAE88983AAFE88B7A270000F2A3EF43
:100CA000FBE221288AC2A02F8A82A0288A02A8E813
:100CB0008B0A2C00001AEEFFFF3B0F000078070F95
:100CC00078F08307F0E0C183E0C1E0C1C183F0E0C8
:100CD000830778F0070F3C780F1EE0C1C183F0E076
:100CE000830778F0070F3C780F1E1E3C1E3C0F1E3A
:100CF0003C78070F78F08307F0E0010000C0E0FFC8
:100D0000FF8320000002A8EF8B0AAC8AC81AAE88C5
:100D1000A83AAF88987AA7E88BF2230000E2A1EF07
:100D2000FBC220288A82A02F8A02A8288A0AACE85F
:100D30008B1A2E00003AEFFFFF7B070000F08307BD
:100D4000F0E0C183E0C1E0C1C183F0E0830778F047
:100D5000070F3C780F1E1E3C1E3CF0E0830778F026
:100D6000070F3C780F1E1E3C1E3C0F1E3C78070FE1
:100D700078F08307F0E0C183E0C100000080E0FF6D
:100D8000FF032800000AACEF8B1AAE8AC83AAF887E
:100D9000A87AA78898F2A3E88BE2210000C2A0EF0E
:100DA000FB8220288A02A82F8A0AAC288A1AAEE879
:100DB0008B3A2F00007AE7FFFFF3030000E0C183C6
:100DC000E0C1E0C1C183F0E0830778F0070F3C7811
:100DD0000F1E1E3C1E3C0F1E3C7878F0070F3C781F
:100DE0000F1E1E3C1E3C0F1E3C78070F78F0830739
:100DF000F0E0C183E0C1E0C1C18300000000E8FF72
:100E0000FF0B2C00001AAEEF8B3AAF8AC87AA78886
:100E1000A8F2A38898E2A1E88BC220000082A0EF8C
:100E2000FB0228288A0AAC2F8A1AAE288A3AAFE831
:100E30008B7A270000F2E3FFFFE3010000C0E0C16E
:100E4000C183F0E0830778F0070F3C780F1E1E3C4B
:100E50001E3C0F1E3C78070F78F03C780F1E1E3C9E
:100E60001E3C0F1E3C78070F78F08307F0E0C1832B
:100E7000E0C1E0C1C183F0E0830708000008ECFF97
:100E8000FF1B2E00003AAFEF8B7AA78AC8F2A38827
:100E9000A8E2A18898C2A0E88B8220000002A8EFF7
:100EA000FB0A2C288A1AAE2F8A3AAF288A7AA7E83A
:100EB0008BF2230000E2E1FFFFC300000080F0E0BE
:100EC000830778F0070F3C780F1E1E3C1E3C0F1E58
:100ED0003C78070F78F08307F0E01E3C1E3C0F1EA5
:100EE0003C78070F78F08307F0E0C183E0C1E0C1F0
:100EF000C183F0E0830778F0070F0C000018EEFFC5
:100F0000FF3B2F00007AA7EF8BF2A38AC8E2A188EB
:100F1000A8C2A0889882A0E88B022800000AACEF43
:100F2000FB1A2E288A3AAF2F8A7AA7288AF2A3E8DA
:100F30008BE2210000C2E0FFFF830000000078F098
:100F4000070F3C780F1E1E3C1E3C0F1E3C78070FFF
:100F500078F08307F0E0C183E0C10F1E3C78070FF3
:100F600078F08307F0E0C183E0C1E0C1C183F0E025
:100F7000830778F0070F3C780F1E0E000038EFFF54
:100F8000FF7B270000F2A3EF8BE2A18AC8C2A088F2
:100F9000A882A0889802A8E88B0A2C00001AAEEF5D
:100FA000FB3A2F288A7AA72F8AF2A3288AE2A1E89F
:100FB0008BC220000082E0FFFF03080000083C789D
:100FC0000F1E1E3C1E3C0F1E3C78070F78F0830757
:100FD000F0E0C183E0C1E0C1C183070F78F083076F
:100FE000F0E0C183E0C1E0C1C183F0E0830778F0A5
:100FF000070F3C780F1E1E3C1E3C0F000078E7FFD9
:10100000FFF3230000E2A1EF8BC2A08AC882A08870
:10101000A802A888980AACE88B1A2E00003AAFEF15
:10102000FB7A27288AF2A32F8AE2A1288AC2A0E8A5
:101030008B8220000002E8FFFF0B0C0000181E3C12
:101040001E3C0F1E3C78070F78F08307F0E0C18349
:10105000E0C1E0C1C183F0E083078307F0E0C18312
:10106000E0C1E0C1C183F0E0830778F0070F3C786E
:101070000F1E1E3C1E3C0F1E3C78070000F0E3FFD5
:10108000FFE3210000C2A0EF8B82A08AC802A888DB
:10109000A80AAC88981AAEE88B3A2F00007AA7EF1E
:1010A000FBF223288AE2A12F8AC2A0288A82A0E824
:1010B0008B022800000AECFFFF1B0E0000380F1EF9
:1010C0003C78070F78F08307F0E0C183E0C1E0C10E
:1010D000C183F0E0830778F0070FF0E0C183E0C13F
:1010E0008307C183070F83070F1E0700003C0FFF14
:1010F0007F781E0140F03C5D5FE0785150C1705137
:10110000588360515007417D5F0F0301401E077DEA
:10111000513C0F4551781E455FF00F455178077DD2
:10112000513C0301401E417D5F0F60414207704109
:101130004483784148C13C7D5FE01E0140F00FFFD1
:101140007F780700003C83070F1EC183070FE0C1B3
:101150008307F0E0C18378F0E0C1E0C18307C18379
:10116000070F83070F1E070F1E3C0F0000781EFF9E
:101170007FF03C0140E0785D5FC170515083605169
:1011800058074151500F037D5F1E0701403C0F7D02
:1011900051781E4551F03C455FE01E4551F00F7DF2
:1011A00051780701403C037D5F1E4141420F604181
:1011B000440770414883787D5FC13C0140E01EFFD9
:1011C0007FF00F000078070F1E3C83070F1EC183BE
:1011D000070FE0C18307F0E0C183C183070F8307D6
:1011E0000F1E070F1E3C0F1E3C781E0000F03CFF38
:1011F0007FE0780140C1705D5F83605150074151CD
:10120000580F0351501E077D5F3C0F0140781E7D33
:1012100051F03C4551E078455FC13C4551E01E7DB1
:1012200051F00F014078077D5F3C0341421E414170
:10123000440F60414807707D5F83780140C13CFFE7
:101240007FE01E0000F00F1E3C78070F1E3C830756
:101250000F1EC183070FE0C1830783070F1E070F0F
:101260001E3C0F1E3C781E3C78F03C0000E078FFEE
:101270007FC170014083605D5F074151500F035192
:10128000581E0751503C0F7D5F781E0140F03C7D99
:1012900051E0784551C170455F83784551C13C7D2F
:1012A00051E01E0140F00F7D5F780741423C034151
:1012B000441E4141480F607D5F077001408378FF05
:1012C0007FC13C0000E01E3C78F00F1E3C78070F09
:1012D0001E3C83070F1EC183070F070F1E3C0F1E06
:1012E0003C781E3C78F03C78F0E0780000C170FF5C
:1012F0007F8360014007415D5F0F0351501E07511E
:10130000583C0F5150781E7D5FF03C0140E0787DE5
:1013100051C17045518360455F0770455183787DA9
:1013200051C13C0140E01E7D5FF00F414278074112
:10133000443C0341481E417D5F0F6001400770FF40
:101340007F83780000C13C78F0E01E3C78F00F1EEF
:101350003C78070F1E3C83070F1E0F1E3C781E3C77
:1013600078F03C78F0E078F0E0C17000008360FF36
:101370007F074101400F035D5F1E0751503C0F5135
:1013800058781E5150F03C7D5FE0780140C1707D7F
:1013900051836045510741455F0F60455107707D9E
:1013A0005183780140C13C7D5FE01E4142F00F4116
:1013B00044780741483C037D5F1E4101400F60FFB8
:1013C0007F077000008378F0E0C13C78F0E01E3CBD
:1013D00078F00F1E3C78070F1E3C1E3C78F03C78DE
:1013E000F0E078F0E0C1F0E0C1836000000741FF69
:1013F0007F0F0301401E075D5F3C0F5150781E5167
:1014000058F03C5150E0787D5FC170014083607DB1
:1014100051074145510F03455F1E4145510F607D06
:10142000510770014083787D5FC13C4142E01E411D
:1014300044F00F414878077D5F3C0301401E41FFA7
:101440007F0F60000007F0E0C18378F0E0C13C78D6
:10145000F0E01E3C78F00F1E3C783C78F0E078F02D
:10146000E0C1F0E0C183E0C183074100000F03FF4A
:101470007F1E0701403C0F5D5F781E5150F03C51CC
:1014800058E0785150C1707D5F8360014007417D15
:10149000510F0345511E07455F3C0345511E417DD9
:1014A000510F60014007707D5F83784142C13C412C
:1014B00044E01E4148F00F7D5F780701403C03FF88
:1014C0007F1E4100000FE0C18307F0E0C18378F088
:1014D000E0C13C78F0E01E3C78F078F0E0C1F0E04C
:1014E000C183E0C18307C183070F0300001E07FF0C
:1014F0007F3C0F0140781E5D5FF03C5150E0785119
:1015000058C170515083607D5F074101400F037DDA
:10151000511E0745513C0F455F780745513C037DFF
:10152000511E4101400F607D5F0770414283784149
:1015300044C13C4148E01E7D5FF00F01407807FF49
:101540007F3C0300001EC183070FE0C18307F0E06A
:10155000C18378F0E0C13C78F0E0000000000000BA
:1015600000000088EE200088AA600088CE2600884F
:10157000AA200088AA200088AA2000EEEA700000B5
:101580000000EAEE00008A8A0000EECE0000228A07
:101590000000228A0000228A0000EEEA000000001B
:1015A000000000000000000000000000000000003B
:1015B000000000000000000000000000000000002B
:1015C000000000000000000000000000000000001B
:1015D000000000000000000000000000000000000B
:1015E00000000088EE200088AA600088CE260088CF
:1015F000AA200088AA200088AA2000EEEA70000035
:101600000000ECAE0000AAAA0000CAEE0000AAAAE0
:101610000000AAAA0000AAAA0000ACAA00000000CC
:1016200000000000000000000000000000000000BA
:1016300000000000000000000000000000000000AA
:10164000000000000000000000000000000000009A
:10165000000000000000000000000000000000008A
:1016600000001CD11D3814511520105115201051A7
:1016700015201CD19939045115080451150804513D
:1016800015080451150814511508DC5D1D380000BB
:10169000000000000000000000000000000000004A
:1016A000000000000000000000000000000000003A
:1016B000000000000000000000000000000000002A
:1016C000000000000000000000000000000000001A
:1016D000000000000000000000000000000000000A
:1016E00000000000000000C0030000C0070000C0B0
:1016F0000F0000C01F0000C03F0000C0030000C07A
:10170000030000C0030000C0030000C0030000C0CD
:10171000030000FC3F0000FC3F0000FC3F00000015
:1017200000000000000000000000000000000000B9
:1017300000000000000000000000000000000000A9
:101740000000000000000000000000000000000099
:101750000000000000000000000000000000000089
:1017600000000000000000F03F0000F03F0000F02B
:101770003F0000F03C0000F03C0000F0000000F0F2
:10178000000000F03F0000F03F0000003C000000BF
:101790003C0000F03F0000F03F0000F03F00000080
:1017A0000000000000000000000000000000000039
:1017B0000000000000000000000000000000000029
:1017C0000000000000000000000000000000000019
:1017D0000000000000000000000000000000000009
:1017E00000000000000000E01F0000F01F0000F0FB
:1017F0001F0000F01F0000F0000000F0000000F0EB
:10180000070000F0070000F0070000F0000000F003
:10181000000000F01F0000F01F0000E01F000000AB
:1018200000000000000000000000000000000000B8
:1018300000000000000000000000000000000000A8
:101840000000000000000000000000000000000098
:101850000000000000000000000000000000000088
:1018600000000000000000783C0000783C00007898
:101870003C0000783C0000783C0000783C0000F818
:101880003F0000F83F0000F83F0000F83F000078FC
:1018900000000078000000780000007800000000E0
:1018A0000000000000000000000000000000000038
:1018B0000000000000000000000000000000000028
:1018C0000000000000000000000000000000000018
:1018D000000000000000000000000000007C00008C
:1018E000003E0000001F0000800F0000C007000045
:1018F000E0030000F0010000F80000007C000000A0
:101900003E0000001F0000800F0000C0070000E044
:10191000030000F0010000F80000007C0000003E21
:101920000000001F0000800F0000C0070000E0035F
:101930000000F0010000F80000007C0000003E0004
:1019400000000000008000000040000000200000B7
:101950000010000000080000000400000002000069
:101960000001000080000000400000002000000096
:101970001000000008000000040000000200000049
:101980000100008000000040000000200000001066
:101990000000000800000004000000020000000138
:1019A0000000800000004000000020000000100047
:1019B0000000080000000400000002000000010018
:1019C0000000000000003EE7D1338808114A08C833
:1019D0009123080811128808114A08E7DD33000036
:1019E0000000000000000000000000000000C073C4
:1019F0006F03004AA902804BA902004AA902004ACB
:101A0000A902C0732F0200000000000000003EE7A2
:101A1000D1338808114A08C8912308081112880890
:101A2000114A08E7DD33000000000000000000005C
:101A3000000000000000B8BB3A3AA8A22A2AA0A2DF
:101A40002B2A38B3383A88A22822B8BAAB23000030
:101A5000000080F7BEF780940894809408948094E6
:101A6000089480E408E78094089480940894809413
:101A70000894809788970000A1F70000A1940000C7
:101A8000A1940000A1940000A1E70000A19400002F
:101A9000A1940000A19400E0BDF407050505070628
:101AA00002020207070107040707010301070505F2
:101AB00007010107040701070704070507070101DC
:101AC00001010705070507070507010707050505C4
:101AD00007070202020307010704070704060407B9
:101AE00004040705050704070107070507010704A4
:101AF0000404040707050705070704070507F88816
:101B0000F808F888E8A8B8F8A888F820E0B8A8E8A5
:101B1000B8A8F8F88080F8A8F8F8A8E8F888F88855
:101B2000F880E8A8B888A8F83820F8B8A8E8F8A895
:101B3000E80808F8F8A8F8B8A8F8000000000000C5
:101B40000000060000001C0000003080070020801C
:101B50000C003C8008003480080014800F001C003A
:101B60000000000000000000000000000000040071
:101B7000000006000000070000000600000004004E
:101B800000000000000000000000F01000008011C4
:101B9000001E4011003220110002A0120006601E3B
:101BA000007C00100040000000400000007C0000AD
:101BB0000000000000000000000000000000000025
:101BC000000000000000000000000030800000481D
:101BD000800000108000002080000048800000305D
:101BE000E00300000000000000000000000004000E
:101BF000002006000060070000E00600006004000E
:101C000000200000000000000000000000000000B4
:101C10000000C00311600002119000021E2080032A
:101C2000114000021190C0031E600000000000007F
:101C300000000000000000000000000000000000A4
:101C40000000000000000000000000000000000094
:101C50008F00000088000000880000008E00000057
:101C600088000000EF0300000000000000000400F6
:101C7000002006000060070000E00600006004008D
:101C80000020000000000000000000000000000034
:101C90000000000000000000800000008000000044
:101CA000E00000009000000090000000E000000054
:101CB0000000000000000000000000000000000024
:101CC0000000000000000000000000000000000014
:101CD0000000000000000000000000000000881E5E
:101CE000880088108800F0107000881C50008C104C
:101CF0002020F61E2060070000E0060000600400BF
:101D000000200000000000000000000000000000B3
:101D10000000C00311600002119000021E20800329
:101D2000114000021190C0031E600000000000007E
:101D300000000000000000000000000000000000A3
:101D40000000000000000000000000000000000093
:101D500000000000000000000000000000008800FB
:101D6000010C88000112F0800204888002088C4077
:101D70000432F640046C070000E006000060040036
:101D80000020000000000000000000000000000033
:101D90000000C07B11000042110000421E00807351
:101DA000110000421100C07B1E0000000000000076
:101DB0000000000000000000000000000000000023
:101DC000000000000000004040320040804A004017
:101DD0000013004000230040804A00F04132000020
:101DE00000000000000000000000000000000400EF
:101DF000002006000060070000E00600006004000C
:101E000000200000000000000000000000000000B2
:101E10000000000000000000700000004000000012
:101E200040000000400000004000000040000000B2
:101E300000000000000000000000000000000000A2
:101E40000000000000000000110000001100000070
:101E50000E0000000A000000040000000400000062
:101E6000000000000000000000000000000004006E
:101E7000002006000060070000E00600006004008B
:101E80000020000000000000000000000000000032
:101E900000000000000080084400800844000007A3
:101EA00078000005440000024400000278000000B1
:101EB0000000000000000000000000000000000022
:101EC0000000000000000000000000000000000012
:101ED0000000000000000000000000000000000002
:101EE0000000000000000000000000000000840767
:101EF000E02106041061070410E1060710610404E4
:101F000010218007E0010000000000000000000038
:101F100000000000000000000000000000000000C1
:101F200000000000000000000000000000000000B1
:101F300000000000000000000000000000000000A1
:101F400000000000000000000000130091031300D7
:101F5000510415001E041500110419005104190044
:101F60009E030000000000000000000000000400CC
:101F7000002006000060070000E00600006004008A
:101F80000020000000000000000000000000000031
:101F9000000000000000C003200200022002000236
:101FA00020028003200200022002C003A00F0000D4
:101FB0000000000000000000000000000000000021
:101FC0000000060000001C004020300040202000DF
:101FD00040203C00402034004020140040201C00E1
:101FE00040240000402C0000C02C0000803A040077
:101FF0008003060000000700000006000000040047
:1020000000000000000000000000041000000410A8
:1020100078000410C000041080000412F000041EB8
:102020004800041078001F000000040000000400B5
:1020300000000000000000000000000000000000A0
:102040000000000000000000000000010F0000017F
:1020500008000001080000010E0000010800C00790
:102060000F0000000000000000000000000004005D
:10207000002006000060070000E006000060040089
:102080000020000000000000000000000000000030
:102090000000D303800313024004150200049503DB
:1020A000000419024004D90380030000000000006E
:1020B0000000000000000000000000000000000020
:1020C00000000000000000000000000000000031DF
:1020D000800000498000001180000021800000493C
:1020E0008000C037E0030000000000000000040092
:1020F000002006000060070000E006000060040009
:1021000000200000000000000000000000000000AF
:1021100000000000000000080000000800000008A7
:1021200000000008000000080000003E0000000061
:10213000000000000000000000000000000000009F
:10214000000000000000000000000000000000008F
:10215000000000000000000000000000000000007F
:10216000890C00008912008072040080520804402B
:1021700024320640246C070000E0060000600400E2
:10218000002000000000000000000000000000002F
:102190000000D303800313024004150200049503DA
:1021A000000419024004D90380030000000000006D
:1021B000000000000000000000000000000000C05F
:1021C0000300000002000080010000400000004009
:1021D0000200008001000000000000000000001E5E
:1021E00001000010010000900200009C0200045059
:1021F0000420065E0460070000E0060000600400A2
:1022000000200000000000000000000000000000AE
:10221000000000788063004040940040002400707B
:1022200000440040409400788063000000000000FB
:10223000000000000000000000000000000000009E
:1022400000000000000080431C00404410000044D7
:10225000100000441C004044100080F31D000000EA
:10226000000000000000000000000000000004006A
:10227000002006000060070000E006000060040087
:10228000002000000000000000000000000000002E
:1022900000000000000000800700000004000000B3
:1022A0000400000007000000040000800700000098
:1022B000000000000000000000000000000000001E
:1022C00000000000000000384004004440040040CA
:1022D00080070040400400444004003880070000AC
:1022E00000000000000000000000000000000400EA
:1022F000002006000060070000E006000060040007
:1023000000200000000000000000000000000000AD
:1023100000000000000080E8010F800801110007A4
:10232000011300C501100002011100E2010E0000BE
:10233000000000000000000000000000000000009D
:10234000000000000000000000000000000000008D
:10235000000000000000000000000000000000007D
:102360000000000000000000000000000000040069
:10237000042006000460070004E006000460040076
:102380000420000004000000000000000000000025
:10239000000000000000000000000000000000003D
:1023A000000000000000000000000000000000002D
:1023B000000000000000000000000000000000001D
:1023C00000000000000000000000C07B110000427F
:1023D000110000421E008073110000421100C07BFA
:1023E0001E000000000000000000000000000400CB
:1023F000002006000060070000E006000060040006
:1024000000200000000000000000000000000000AC
:1024100000000000000000000202000002020000B4
:102420000202000002020000020200808F0F000082
:10243000000000000000000000000000000000009C
:10244000000000010000003D0000002500000033F6
:1024500000000013000000110000001F0000000138
:102460000000000100000001000000010000040164
:102470000000060100000701000006000000040043
:1024800000000000000000000000F4C00100840112
:1024900003004401020024010200A40002006400C1
:1024A000030004C001001F0000000400000004003D
:1024B000000000000000000000000000000000001C
:1024C0000000000000000000000000300F00004885
:1024D00008000010080000200E000048080000302E
:1024E0000F000000000000000000000000000400D9
:1024F000002006000060070000E006000060040005
:1025000000200000000000000000000000000000AB
:102510000000137811001340110015401E001570C3
:1025200011001940110019781E0000000000000081
:10253000000000000000000000000000000000009B
:10254000000000000000000000000000000000305B
:102550000F00004808000010080000200E0000488E
:10256000080000300F000000000000000000040020
:10257000002006000060070000E006000060040084
:10258000002000000000000000000000000000002B
:102590000000000000000080030000400400004034
:1025A000040000400400004004000080030000001C
:1025B000000000000000000000000000000000809B
:1025C000000000800000008000000080000000800B
:1025D00001000080000000000000000000008800F2
:1025E000010088000100F0800200888002008C4019
:1025F0000420F6400460070000E0060000600400CC
:1026000000200000000000000000000000000000AA
:102610000000137811001340110015401E001570C2
:1026200011001940110019781E0000000000000080
:10263000000000000000000000000000000000C0DA
:102640000300000002000080010000400000004084
:10265000020000800100000000000000000088006F
:10266000880088008800F0007000880050008C000E
:102670002020F6002060070000E006000060040053
:10268000002000000000000000000000000000002A
:102690000000D303800313024004150200049503D5
:1026A000000419024004D903800300000000000068
:1026B000000000000000000000000000000000001A
:1026C00000000000000012005C02120090021200E4
:1026D00010031E001C031200900212005C02000096
:1026E00000000000000000000000000000000400E6
:1026F000002006000060070000E006000060040003
:1027000000200000000000000000000000000000A9
:10271000000000000000003C000000220000002239
:1027200000000022000000220000003C0000000029
:102730000000000000000000000000000000000099
:10274000000000000000E00140040001400400011E
:102750008007C001400400014004E0018007000040
:102760000000000000000000000000000000040065
:10277000002006000060070000E006000060040082
:102780000020000000000000000000000000000029
:1027900000000000000010E045001000450010009F
:1027A000790010C04500100045007CE07900000071
:1027B0000000000000000000000000000000000019
:1027C0000000000000000000000000000000000009
:1027D00000000000000000000000000000000000F9
:1027E000000000000000000000000000000084E77E
:1027F000002006140160070401E0060701600414CC
:10280000012080E700000000000000000000000040
:1028100000000000000000000000000000000000B8
:1028200000000000000000000000000000000000A8
:102830000000000000000000000000000000000098
:1028400000000000000000000000007880630040ED
:102850004094004000240070004400404094007800
:102860008063000000000000000000000000040081
:10287000002006000060070000E006000060040081
:102880000020000000000000000000000000000028
:10289000000000000000C03B0000002200000022F9
:1028A00000008023000000220000C0230000000080
:1028B0000000000000000000000000000000000018
:1028C0000000000000000000000000000000000008
:1028D00000000000000000000000000000000000F8
:1028E00000000000000000000000000000000000E8
:1028F00000000000000000000000000000000000D8
:1029000000000000000000000000000000000000C7
:1029100000000000000000000000000000000000B7
:1029200000000000000000000000000000000000A7
:102930000000000000000000000000000000000097
:102940000000000000000000000000000000000087
:102950000000000000000000000000000000000077
:10296000000000000000000000000C0000001E003D
:1029700000001E0000000C0000000000000000002D
:1029800000180000003C0000003C0000001800009F
:102990000000000000000000000000000000000037
:1029A0000000000000000C0000001E0000001E00DF
:1029B00000000C000000000000000000000000000B
:1029C00000300000007800000078000000300000B7
:1029D00000000000000000000000000000000000F7
:1029E00000000000000000000000000000300000B7
:1029F00000780000007800000030000000000000B7
:102A00000000060000000F0000000F00000006009C
:102A100000000000000000000000000000000000B6
:102A20000000000000030000800700008007000095
:102A30000003000000000000000000000000000093
:102A40000000000000000000000000000000000086
:102A50000000000000000000000000000000000076
:102A60000000000000000000000000000000000066
:102A700000000000000000000060000000F0000006
:102A800000F00000006000000000000000000000F6
:102A900000000C0000001E0000001E0000000C00E2
:102AA00000000000000000000000000000600000C6
:102AB00000F0000000F000000060000000000000D6
:102AC0000000000000000000000000000000000006
:102AD00000000000000000000000000000000000F6
:102AE00000000000000000000000000000000000E6
:102AF00000000000000000000000000000000000D6
:102B000000000000000000000000000000000000C5
:102B100000000000000000000000000000000000B5
:102B200000000000000000000000000000000000A5
:102B30000000000000000000000000000000000095
:102B40000000000000000000000000000000000085
:102B5000180000003C0000003C00000018000000CD
:102B60000000000000000000000000000000000065
:102B70000000000000000000000000000000000055
:102B80000000000000000000000000000000000045
:102B90000000000000000000000000000000000035
:102BA0000000000000000000000000000000000025
:102BB00000180000003C0000003C0000001800006D
:102BC0000000000000000000000000000000000005
:102BD00000300000007800000078000000300000A5
:102BE00000000000000000000000000000000000E5
:102BF00000000000000000000000000000000000D5
:102C000000000000000030000000780000007800A4
:102C10000000300000000000000000000000000084
:102C200000000000000000000000000000000000A4
:102C30000000000000000000000000000000000094
:102C400000000000000000000C0000001E0000005A
:102C50001E0000000C00000000000000000000004A
:102C60000000000000000000000000000000000064
:102C700000000000000000000000000000000C0048
:102C800000001E0000001E0000000C0000000000FC
:102C90000000000000000000000000000000000034
:102CA00000000003000080070000800700001803F8
:102CB00000003C0000003C00000018000000000084
:102CC00000000000003000000078000000780000E4
:102CD00000300000000000000000000000000000C4
:102CE00000000000000000000000000000000000E4
:102CF00000000000003000000078000000780000B4
:102D00000030000000000000000000000000000093
:102D100000000000000000000000000000000000B3
:102D200000000000000000000000000000000000A3
:102D30000000000000000000000000000000000093
:102D400000000000000000000000000000000C0077
:102D500000001E0000001E0000000C00000000002B
:102D600030000000780000007800000030300000E3
:102D70000078000000780000003000000000000033
:102D80000000000000000000000000000000000043
:102D90000000000000000000000000000000000033
:102DA0000000000000000000000000000000000023
:102DB0000000000000000000000000000000000013
:102DC000000000000000000000000060006000F053
:102DD00000F000F000F00060006000000000000063
:102DE00000000000000000000000000000000000E3
:102DF00000000000000000000000000000000000D3
:102E000000000000000000000000000000000000C2
:102E100000000000000000000000000000000000B2
:102E200000000000000000000000000000000000A2
:102E30000000000000000000000000000000000092
:102E40000000000000000000000000000000000082
:102E500000000000000000000000000000000C0066
:102E600000001E0000001E0000000C00000000001A
:102E70000000000000000000000000000000000052
:102E80000000000000000000000000000000000042
:102E90000000000000000000000000000000000032
:102EA0000000000000000000000000000000000022
:102EB00000000000000000000000000000001800FA
:102EC00000003C0000003C00000018000000000072
:102ED00000000000000000000000000000000000F2
:102EE00000000000000000000000000000000000E2
:102EF00000000000003000000078000000780000B2
:102F00000030000000000000000000000000000091
:102F100000000000000000000000000000000000B1
:102F200000000000000000000000000000000000A1
:102F30000000000000000000000000000000000091
:102F40000000000000180000003C0000003C0000F1
:102F50000018000000000000000000000000000059
:102F600000000000000000000030000000780000B9
:102F70000078180000303C0000003C000000180001
:102F8000000000180000003C0000003C0000001899
:102F900000000C0000001E0000001E0000000C00DD
:102FA0000000000000000000000000000000000021
:102FB00000180000003C0000003C00000018000069
:102FC00000000000000000000000000000060000FB
:102FD000000F0000000F00000006000000000000CD
:102FE00000000000000000000000000000000000E1
:102FF0000000000000000000003000000078000029
:103000000078000000300000000000000000000018
:1030100000000000000000000000000000000000B0
:10302000000000000000000000000060000000F050
:10303000000000F000000060000000000000000040
:103040000000000000000000000000000000000080
:10305000000000000000000000000000000000C0B0
:10306000000000E0010000E0010000C000000000DE
:103070000000000000000000000000000000000050
:103080000000000000000000030000800700008036
:10309000070000000300000000000000000000C066
:1030A000000000E0010000E0010000C0000000009E
:1030B00000300000007800000078000000300000C0
:1030C0000000000000000000000000000000000000
:1030D0000000000000000C0000001E0000001E00A8
:1030E00000000C00000000000000000000000000D4
:1030F00000000000000000000000000000000000D0
:10310000003000000078000000780000003000006F
:1031100000000000000000000000000000000000AF
:10312000000000000000000000000000000000009F
:10313000000000000000000000000000000000008F
:10314000030000800700008007000000030000006B
:10315000000000000000000000000000000000006F
:1031600000000000000000000C0006001E000F0020
:103170001E000F000C000600000000000000000010
:103180000000000000000000060000000F0000002A
:103190000F00000006000000000000001800000002
:1031A0003C0000003C00000018000000000000008F
:1031B000000000000000000000000000000000000F
:1031C00000000000000000000000000000000000FF
:1031D00000000000000000000000000000000000EF
:1031E00000000000000000000000000000000000DF
:1031F0000000000000000000180000003C0000007B
:103200003C0000001800000000000000000000006A
:10321000000000000C0000001E0000001E00000066
:103220000C00000000000000000000000000000092
:10323000000000000000000000000000000000008E
:10324000000000000000000000000000000000007E
:10325000000030000000780000007800000030001E
:10326000000000000000000000000000000000005E
:10327000000000000000000000000000000000004E
:1032800000000000000000000000000086010000B7
:10329000CF030000CF030000860100000000000003
:1032A000000000000000000000000000000000001E
:1032B000000000000000000000000000000000000E
:1032C00000000000000000000000000000000000FE
:1032D000000000000060001800F0003C00F0003C1E
:1032E0000060001800000000000000000000000066
:1032F00000000000000000000000000000000000CE
:10330000000000000060000000F0000000F000007D
:10331000006000000000000000000000000000004D
:10332000000000000000000000000000000000009D
:10333000000000000000000000000000000000008D
:10334000000000000000000000000000000000007D
:103350000000180000003C0000003C0000001800C5
:10336000000000000000000000000000000000005D
:10337000000000000000000000000000000000004D
:10338000000000000000000000000000000000003D
:10339000000000000000000000000000000000002D
:1033A00000300000007800000078000000300000CD
:1033B000000000000000000000000000000000000D
:1033C0000000000000180000003C0000003C00006D
:1033D00000180000000000000000000000000000D5
:1033E000000000000000000000000000000000805D
:1033F000010000C0030000C00300008001000000C5
:1034000000000000000000000000000000000000BC
:1034100000000000000000000000000000000000AC
:1034200000000000000000000000000000000C0090
:1034300000001E0000001E0000000C000000000044
:10344000000000000000000000000000000000007C
:10345000000C0000001E0000001E0000000C000018
:103460000000000000000000000000000000180044
:1034700000003C0000183C00003C1800003C00002C
:103480000018000000000000000000000000000024
:10349000000000000000000000000000000000002C
:1034A000000000000000000000180000003C0000C8
:1034B000003C0000001800000000000000000000B8
:1034C00000000000000000000000000000000000FC
:1034D00000000000000000000000000000000000EC
:1034E00000000000000000000000000000000000DC
:1034F00000000000000000000000000000000000CC
:103500000000000000000080010000C0030000C0B7
:103510000300008001000000000000000000000027
:10352000000000000000000000000000000000009B
:10353000000000000000000000000000000000008B
:10354000000000000000000000000000000000007B
:103550000000000000000000000060000000F0001B
:103560000000F0000000600000000000000000000B
:10357000000000000000000000000000000000004B
:10358000000000000000000000000000000000003B
:10359000000000000000000000000000000000002B
:1035A0000000000000000000003000000078000073
:1035B0000078000000300000000000000000000063
:1035C00000030000800700008007000000030000E7
:1035D00000000000000000000000000000000000EB
:1035E00000000000000000000000180000003C0087
:1035F00000003C0000001800000000000000000077
:1036000000000000000000000000000000000000BA
:1036100000000000000000000000000000000000AA
:10362000000000000000000000000000000000009A
:10363000000000000000000000000000000030005A
:10364000000078000000780000003000000000005A
:10365000000000000000000000180000003C000016
:10366000003C000000180000000000000000000006
:10367000000000000000000000000000000000004A
:1036800000000000000000000000000000000C002E
:1036900000001E0000001E0000000C0000000000E2
:1036A000000000000000000000000000000000001A
:1036B000000000000000000000000000000000000A
:1036C00000000000000000000000000000000000FA
:1036D00000000000000000000000000000000006E4
:1036E0000000000F0000000F0060000600F0000066
:1036F00000F000000060000000000000000000304A
:103700000000007800000078000000300000000099
:1037100000000000000000000000000000000000A9
:103720000000000000000000000000000000000099
:103730000000000000000000000000000018000071
:10374000003C0000003C00000018000000000000E9
:103750000000000000000000000000000000000069
:1037600000000C0000001E0000001E0000000C0005
:103770000000000000000000000000000000000049
:103780000000000000000000000000000000000039
:1037900000000C0000001E0000001E0000000C00D5
:1037A00000000000003000000078000000780000F9
:1037B00000300000000000000000000000000000D9
:1037C00000000000000000000000000000000000F9
:1037D00000000000000000000000000000000000E9
:1037E00000000000000000000000000000000000D9
:1037F00000000000000000000000000000000000C9
:1038000000000000000000000000000000000000B8
:1038100000000000000000000000000000000000A8
:103820000000000000000000000000000000000098
:103830000000000000000000000000000000000088
:103840000000000000000000000000000000000078
:1038500000000000000000000000FF0000FFFF006B
:1038600000FFFF0000FFFF0000FFFF0000FFFF0060
:1038700000FFFF0000FFFF0000FFFF0000FFFF0050
:1038800000FFFF0000FFFF0000FFFF0000FFFF0040
:1038900000FFFF0000FFFF0000FFFF0000FFFF0030
:1038A00000FFFF0000FFFF0000FFFF0000FFFF0020
:1038B00000FFFF0000FFFF0000FFFF0000FFFF0010
:1038C00000FFFF0000FFFF0000FFFF0000FFFF0000
:1038D00000FFFF0000FFFF0000FFFF0000FFFF00F0
:1038E00000FFFF0000FFFF00C0FFFF00E0FFFF013F
:1038F000E0FFFF03E0FFFF07F0FFFF0FF0FFFF1FF8
:10390000F0FFFF1FF8FFFF1FF8FFF31FF8FFE10FA5
:10391000F8FFE10FF0FFF307E0FFFF07E0FFFF0311
:10392000E0E7FF03E0C3FF03E0C3FF03E0E7FF437B
:10393000E0FFFF41E0FFFF61E0FFFF61E0FFFFE12B
:10394000E0FFFFE1E0FFF3E1E1FFE1E1E1FFE1E1C1
:10395000C3FFF3E1C3FFFFE183FFFFE183FFFFE16B
:10396000C7FFFFE1C7FFFFE1C3FFFFE1C3FFFFE1C7
:10397000C1FFFFE1C1FFFFE1C0FFFFE1C0FFFFE1C9
:10398000C0FFFF61F0FFFF61F8FFFF61F8CFFF614B
:10399000FC87FF01FC87FF03FCCFFF03FCFFFF0355
:1039A000FCFFF903FCFFF007FCFFF00FF8FFF90F35
:1039B000F0FFFF07F8FFFF07F8FFFF07F8FFFF071B
:1039C000FCFFFF03FCFCFF037CF8E7017EF8C3016A
:1039D000FEFCC301FEFFE701FFFFFF00FFFFFF004A
:1039E000FFFF7F00FEFF7F00FEF37F00FEE13F0050
:1039F000FCE13F00FCF33F00FCFF3F00F8FF1F002D
:103A0000F8FF1F00F8FF1F00F0FF1F00F0FF0F106E
:103A1000F0FF0F10F0FF0F18E09F1F10E00F3F00A6
:103A2000E00F3F20E09F3F20C0FF3F20C0FF3F60EE
:103A3000C0FF3F6080FF3F6080FF3F6080FF3FE04E
:103A400080FF3FE080FF3FE080FF3FE0809F3FE05E
:103A5000800F3FE0800F3FE0009F3FE000FF3FC04E
:103A600000FF3F8001FF7F8001FF7F0001FF7F009B
:103A700001FE3F0000FE3F0000FE1F0000FE1F0091
:103A800000FE1F0600FE0F0E00FE0F0E00FE0F1FB1
:103A900000FE0F1F00FE0F3F00FE0F7F00FE0F7F96
:103AA00000FE0FFF00FE07FF00FE07E701FC87C3D3
:103AB00003FC87C303FC87E701F887FF01F887FF52
:103AC00000F0877F00F0877F00E0877F00E0873F7E
:103AD00000E0871F00E0870F20C0870F30C08707F6
:103AE00030C0830378C0830378C0C3037CC0C303A2
:103AF0007EC0C3037EC0C3037EC0C3037EC0C303B6
:103B00007EC0C30166C0C30142C0C30143C0C3013C
:103B100067C0C3013FC0C3003FC0C3003FE0C30054
:103B20001FE0C3801FE0C3800FF0C3800FF0C3808D
:103B30000FF8C38007F8C38003F8C38001FCC3807B
:103B400001FCC30001FEC30001FFC30100FFC3016C
:103B500000FFC30100FFC30180FFC30180FFC30753
:103B6000C0FF8307C0FF8307C0FF070FC0FF070E1A
:103B7000C0CF0F1CE0871F1CE0873F38C0CF7F10ED
:103B8000C0FF7F00C0FFFF0080FFFF0180FFFF0339
:103B900080FFFF0700FFFF0F00CFFF0F0086FF0F22
:103BA0000086FF0F00CECF0F00FC870700FC8707C1
:103BB00000FCCF0704FCFF0704F8FF0704F8FF0729
:103BC0000CF8FF070CF0FF030CF0FF031CF0FF03E1
:103BD0001EE0E7031EE0C3013EE0C3013EE0E70153
:103BE0003FE0FF013FE0FF0133E0FF0121E0FF0183
:103BF00021E0FF0133E0FF013FE0FF013FE0FF0173
:103C00003EE0FF013EE0FF033CE0FF033CE0FF033A
:103C10003CE0FF073CE0FF073CE0FF0738E0F3072C
:103C200018E0E10710E0E10F10E0F30F00F0FF1FD4
:103C300000F0FF1F00F0FF1F00F8FF1F00F8FF3F1C
:103C400000F8FF3F00F8FF3F00FCFF7F00FCE77F2C
:103C500000FCC37F00FEC37F00FEE77F00FEFF7F06
:103C600000FFFF7F00CFFF7F0087FF7F8087FF3F40
:103C700080CFFF3F80FFFF3F80FFFF1F80FFFF1FC0
:103C800080FFFF0F80FFFF0700FFFF0700FFFF031C
:103C900000FFFF0300CFFF010087FF010087FF0146
:103CA00000CFFF0101FFFF0001FFFF0001FFFF80C8
:103CB00001FF7F8001FF7F8000FF7FC000FF3FC0CA
:103CC00000FF3FC080FF3F4080FF3F2080FF1F205C
:103CD000C0FF1F00C0FF1F10E0FF1F00E0FF1F001C
:103CE000F0CF1F00F0871F00F8871F00FCCF1F00D8
:103CF000FEFF1F00FEFF1F00FEFF1F00FFFF1F0053
:103D0000CFFF1F0087FF1F8087FF1F80CFCF1F803F
:103D1000FF871F80FF871F00FFCF1F00FEFF1F00D0
:103D2000FEFF1F00FEFF1F00FEFF0F00FEFF0F0043
:103D3000FCFF0F00FCFF0F00F8FF0F00F0CF0F009B
:103D4000F0870F00E0870F10C0CF0F10C0FF0738BB
:103D500080FF077880FF077800FF07FC00FF07FC63
:103D600000FE07FC01FE07FC01FC079803FC0708A6
:103D700003FC070007F80F9007F80FF007F81FE0A3
:103D80000FF81FC00FF83FC00FF03F800FF07F808B
:103D90000FF07F001FF0FF001FE0FF001EE0E701B3
:103DA0003EE0C3013EE0C3011EE0E7011EE0FF006C
:103DB0000EE0FF000FF07F800FF03F8007F81FC07C
:103DC00007F80FC003F80FE003FC07F003FC07F847
:103DD00003FC07F803F807F003F80FE007F00FC043
:103DE0000FE01F801FE03F001FC07F003FC0FF00AB
:103DF0003EC0FF017CC0FF037CC0FF037CC0F30713
:103E00007CC0E1037CC0E1033CC0F3013CC0FF0186
:103E10001EC0FF000EE0FF000FF07F8007F07F80E4
:103E200007F83F8007F83FC007FC3FC007F83FE0B6
:103E300007F03F800FE03F001FE07F001EC0FF0043
:103E40003C80FF007880E7017080C303E080C30FEF
:103E5000C080E70FC080FF3FC080FF3F4080E70F7A
:103E60006080C30F60C0C30F30C0E70738C0FF07D2
:103E700018C0FF031CE0FF031CE0FF010EF0FF0071
:103E80000EF0FF0007F07F0007F83F8003F83FC007
:103E900003FC3FC003CC3FE001863FE001863FE0EA
:103EA00001CE3FC001FF3FC001FF3FC001FF3FC047
:103EB00000FF3FC000FF3FE080FF1FE080FF1F606A
:103EC00080FF1F6080FF0F30C0FF0F30C0FF0F1852
:103ED000E0FF0F08E0FF0700F0FF0700F8FF070012
:103EE000F8FF0700FCE70700FEC30700FFC3070059
:103EF000FFE70780FFFF0780FFFF0FC0FFFF1F8066
:103F0000FFFF1F00FFFF3F00FCCF7F00F087FF0097
:103F10008087FF0100CFFF0300FEFF0F00FEFF1FA1
:103F200000FCFF6700FCFFC301FCFFC307FCFFE7C9
:103F300007FCF3FF03FCE1FF009CE13F000CF31FD3
:103F4000000CFF07009EFF0000FF7F0080FF3F0086
:103F5000E0FF1F00F8FF1F00FEFF1F00FFFF1FC054
:103F6000FFFF1FE0FFFF1F80FFFF1F00FEF93F0064
:103F7000FCF07F00F8F0FF00F8F9FF00F0FFF3011C
:103F8000E0FFE100E0FFE100C0FFF300C0FFFF0041
:103F9000C0FF7F0080FF7F0080CF3FC080873FC091
:103FA00000873FC000CF1FE001FF1FE001FF0FF0BF
:103FB00001FE0FF001FE0FF003FE07F803FC07F807
:103FC00003FC07F803FC07FC07F8079C07F8070C3D
:103FD00007F8070C0FF8079C0FF007FC0FF007FC21
:103FE0000FF007FC1FF0077C1EF0033C1CF0033CA5
:103FF0001CF0037C1EF003FE1FF003FE1FF0033EC7
:104000001FF0031E1EF0031E1EF0033E1FF003FEF2
:104010001FF003FE1FF003FE1FF003FC1FF003FC64
:104020001FF003FC1FF007FC1CF0077C18F0077C56
:1040300018F007FC1CF007FC1FF007FC1FF007FC42
:104040001FF007F80FF007F80FF007F80FF80FF060
:1040500007F80FF007F81FE007FC1FE007FC1FE060
:1040600007FC3FE003FC3FE003FC3FE003FC3FE0D4
:1040700001FE3FC001FE3FC001FE3FC001CF7FC037
:1040800000877F8000877F0080CF7F0080FFFF0058
:1040900080FFFF0080FFFF0080FFFF0180FFFF0126
:1040A00080CFFF010087FF010087FF0300CFFF01E2
:1040B00000FEFF0100FEFF0002FC7F0002FC7F000B
:1040C00003F83F8007F01FC00FF01FE00FE00FE084
:1040D0001FE00FF01FE00FF03FE00FF83FE00FF898
:1040E0003CC00F7838C00F7878C00FF07CC00FF05C
:1040F0007FC00FE07F801FC07F801FC0FF803FC058
:10410000FF807F80FF807F80F380F980E180F080F6
:10411000E180F080F380F980FF807F80FF807F80E6
:10412000FF803F807F803FC07F801FC07FC01FE037
:104130007FC01FE07FC01FF07FC00FF067C00FF08F
:1041400043C007F843C007F867C007F87FC007FC03
:104150007FC0073C7FC0071C7EC0071C7EC0073C99
:104160007FC007F87FC007F87FC007F07FC00FE06F
:104170007FC01FC07FC03F807FC03F007FC07F00E7
:104180007FC0FF007F80FF017F80FF017F807F0075
:10419000FF803F00FF801F00E7800F00C3800F807B
:1041A000C38007C0E78007F0FF8003F8FF8003FCAF
:1041B000FF8003FEF38003FEE18003FCE18003F84F
:1041C000738007F87F8007E07F800FC07FC01F00EB
:1041D0007FC03F007CC03F0038C07F0020C0FF0090
:1041E00000C0FF0300E0FF0700E0FF1F00E0FF7FCB
:1041F00000F0CFFF00F087FF01F887FF00F8CF7FC6
:1042000000FCFF3F00FEFF1F00FFFF0F80FFFF07C6
:10421000C0FFFF03F0FFFF03F8FFFF01FCFFFF00FB
:10422000FEFFFF00FFFF7380FFFF61807FFE61C024
:104230003FFC73C03FFC7FC07FFE7FC0FFFF7FC09D
:10424000FFFF7FC0FFCF0F80FF870700FF870300BE
:10425000FECF0300F8FF0100F0FF0102E0FF0107BD
:10426000E0FF010FC0FF011FC0FF013E80FF017E84
:1042700000FF03FE009E03FE000E03FE010E03FE80
:10428000039E03FE03FE03FE03FE03FE01FE037E08
:1042900000FE031C00FE030C00FF030880FF070064
:1042A00000FF0700009E0F00000E0F00000E1F0011
:1042B000029E3F0003FE3F8003FC3FC003FC3FC063
:1042C00003FC3FC007FC7FC007F87FC007F87F8072
:1042D00007F87F800FF0FF800FF0FF801FE0FF00E6
:1042E0001FE0FF003FC0FF013FC0FF0167C0FF01AB
:1042F00042C0E70142C0C30366C0C3037EC0E703F8
:104300003EC0FF033EC0FF033EC0FF033EE0FF038D
:104310001EE0FF031CE0FF031CF0FF010CF0FF0098
:1043200004F0FF0004F87F0006F83F0007FC3F8020
:1043300003FC1FC003FC1FE003FC1FF003FE1FF083
:1043400001FE1FF001FE1FE001FE1FE001FF3FC064
:1043500000FF3F8000FF7F0000FFFF0080FFFF00A5
:1043600080FFFF0080E7FF0080C3FF0080C3FF00E5
:10437000C0E7FFE0C0FFFFF081FFFFF803FFFFF899
:1043800003FEFFF803FEFFF803FCFFF803F8FF78D5
:1043900002F8FF3804F8FF3804FCE77006FEC3F0AB
:1043A00087FFC3F087FFE7F08F9FFFF00F0FFFF04D
:1043B0000F0FFFE00F9FFFE11FFFFFE11FFFFFE176
:1043C0001FFFFFC11FFFFFC11FFFFFC119FFF3E167
:1043D00010FFE1E110FFE1F119FFF3F10FFFFFF131
:1043E0000FFFFFF107FFFFF187FFFFE183FFFFC131
:1043F00081F3FF01C0E1FF01C0E1FF01E0F3FF0134
:10440000E0FFFF03F0FFFF01F0FFFF01F8FFE7010E
:10441000FCFFC301FEE7C301FFC3E701FFC3FF01C8
:10442000FFE7FF01FFFFFF01CFFFFF0187FFFF0154
:1044300087FFFF01CFFFFF01FFFFFF01FFFFFF002D
:10444000FFFFFF00FFFFFF80FFE7FF80FFC3FF804C
:10445000FFC3FF00FFE7FF00FEFFFF01FCFFFF03BC
:10446000FCFFFF03F8FFFC07F0FFF80FF0FFF80F69
:10447000E0FFFC07C09FFF07C00FFF03800FFF0195
:10448000809FFF0100FFFF0000FEFF0001FE7F0094
:1044900001FE7F8003FE7FC003FC3FC003FC3FC0E2
:1044A00003FC1FE007FC1F6006F81F2004F80F3014
:1044B0000CF80F700EF80FF00FF00FC00FF00F0098
:1044C0000FF00F001CE0070010E0070000C007001D
:1044D00000C0070000C00F0000C01F0000C03F0068
:1044E00000C03F0000C07F0000C0FF0000C0FF030D
:1044F00000C0FF1F20C0FF7F10C09FFF0FC00FFF35
:1045000007E00FFF03F09FFF01F8FF3F00FCFF1FD4
:1045100000FEFF0F00FFFF0780FFFF03C0FFFF014A
:10452000E0FFFF00F0FF7F00FCFF3F00F8FF3F00CF
:10453000F0FF1F00F0FF1F00F0FF1F00E0FF1F0053
:10454000E0FF1F00E0FF3F00E0CF7F00E087FF3F7C
:10455000E087FF3FE0CFFF3FE0FFFF3FE0FFFF3F8F
:10456000E0FC7F3E60F83F3C60F83F3CE0FC7F3E73
:10457000E0FFFF3FE0FFFF3FE0FFFF3FE0FFFF1FE7
:10458000E0FFFF1FE0FFFF1FF0FFE71FF0F3C31F77
:10459000F0E1C31FF0E1E71FF0F3FF0FF0FFFF0FA3
:1045A000F0FFFF0FF8FFFF0FF8FFFF07F8FFFF070F
:1045B000F8FFFF03FCFFFF03FCFFFF03FEFFFF0309
:1045C000FEFFFF03FCFFFF03F8FFFF07F0FFFF07FD
:1045D000E0FFFF0FE0FFFF1FC0FFFF3FC0FFCF7FE7
:1045E00080FF877F00FF87FF00FFCFFF00FFFFFFF7
:1045F00001FFFFFF01FEFFFF01FEFFFF03FEFFFFC4
:1046000003FEFFFF03FEFFFF03FEFF0102FEFF00AC
:1046100000FE7F0000FE3F0000FE3F0000FE3F0066
:1046200000FE3F0000FE3F2000FE3F6000FE3F60B6
:1046300000FE3FE000FE3FE000FE3FE001CE3FC055
:1046400000863F4000867F0000CC7F0000FC7F009A
:1046500000FC7F0000FCFF0000FCFF0100FCFF03EA
:1046600004FCFF0706FCFFFF07FCFFFF07FCFFFF42
:1046700007FCFFFF07FCFFFF07FCFFFF07FCFFF93C
:1046800007FCFFF007FCFFF0079CFFF9070CFFFF9A
:10469000070CFFFF079CFFFF07FCFFFF07FCFFFF66
:1046A00007FCFFFF07FCF9FF03FCF0FF03FCF0FF32
:1046B00003FCF9FF00FEFF7F00FEFF3F00FFFF1F2E
:1046C00080FFFF1F80FFFF0FC0FFFF03E0FFFF031E
:1046D000F8FFFF01FCFFFF00FCFF7F00FEE73F004B
:1046E000FFC33F80FFC33FC0FFE73FE0FFFF3F80C6
:1046F000FFFF3F00FFFF3F00FEFF7F00F8FFFF00CE
:10470000F0FFFF01E0FFFF03E0FFFF0FE0FFFF1FEF
:10471000E0FFFF3FE0FFFF3FE0FFFF3FE0FFFF3C28
:10472000E0E77F38E0C37F38E0C3FF3CE0E7FF3FCE
:10473000E0FFF31FE0FFE11FF0FFE11FF8FFF31FB1
:10474000F8FFFF1FF8FFFF1FF8FFFF3FF0FFFF7F9D
:10475000F0FFFF3FF0FFFF1FE0FFFF0FE0FFFF074D
:10476000C0FFFF0380FFFF0180FFFF0100FFFF008C
:1047700000FFFF0000FFFF0000FFFF0000FFFF0041
:1047800000FFFF0000FFFF0000FFFF0000FFFF0031
:1047900000FFFF0000FFFF0000FFFF0000FFFF0021
:1047A00000FFFF0000FFFF0000FFFF0000FFFF0011
:1047B00000FFFF0000FFFF0000FFFF0000FFFF0001
:1047C00000FFFF0000FFFF0000FFFF0000FFFF00F1
:1047D00000FFFF0000FFFF0000FFFF0000FFFF00E1
:1047E00000FFFF0000FFFF0000FFFF0000FFFF00D1
:1047F00000FFFF0000FFFF0000FF000000000000BE
:1048000000000000000000000000000000000000A8
:104810000000000000000000000000000000000098
:104820000000000000000000000000000000000088
:104830000000000000000000000000000000000078
:104840000000000000000000000000000000000068
:104850000000000000000000000000000000000058
:104860000000000000000000000000000000000048
:104870000000000000000000000000000000000038
:104880000000000000000000000000000000000028
:104890000000000000000000000000000000000018
:1048A0000000000000000000000000000000000008
:1048B00000000000000000000000000000000000F8
:1048C00000000000000000000000000000000000E8
:1048D00000000000000000000000000000000000D8
:1048E0000000000000000C0000001E0000001E0080
:1048F00000000C00000000000000000000000000AC
:10490000000000000000000000000000000018008F
:1049100000003C0000003C00000018000000000007
:104920000000000000000000000000000030000057
:104930000078000000780000003000000000000057
:104940000000000000000000000000000000000067
:104950000000000000000000000000000000000057
:1049600000000000000000000000180000003C00F3
:1049700000003C00000018000000000000000000E3
:104980000000000000000000000C0000001E0000FD
:10499000001E0000000C00000000000000000000ED
:1049A00000000000000300008007000080070000F6
:1049B00000030000000000000000000000000000F4
:1049C00000000000000000000000000000000000E7
:1049D00000000000000000000000000000000000D7
:1049E0000000000000000000000000000060000067
:1049F00000F0000000F00000006000000000000077
:104A000000000000000000000000000000000000A6
:104A10000000000000000000000000000000000096
:104A20000000000000300000007800000078000066
:104A30000030000000000000000000000000000046
:104A40000000000000000000000000180000003C12
:104A50000000003C00000018000000000000000002
:104A60000000000000000000000000000000000046
:104A70000000000000000000000000000000000036
:104A80000000000000000000000000000000000026
:104A90000000000000000000000000000000000016
:104AA00000000000180000003C0000003C00000076
:104AB00018000000000000000000000000000000DE
:104AC00000000000000000000000000000000000E6
:104AD00000000000000000000000000000000000D6
:104AE00000000000000000000000000000000000C6
:104AF00000000000000000000000000000000000B6
:104B000000000000000000000000000000000000A5
:104B10000000000000000000000000000000000095
:104B20000000000000000000000000000000000085
:104B300000000000000000000030000000780000CD
:104B400000780000003000000000000000000000BD
:104B50000000000000000000000000000000000055
:104B60000000000000000000000000000000000045
:104B70000000180000003C0000003C00000018008D
:104B800000000000000000000C0000001E000000FB
:104B90001E0000000C0000000000000000003000BB
:104BA00000007800000078000000300000000000E5
:104BB00000000000000000000000000000000C00E9
:104BC00000001E0000001E0000000C00000000009D
:104BD00000000000000000000000000000000000D5
:104BE00000000000000000000000000000000000C5
:104BF00000000000000000000000000000000000B5
:104C0000000080010030C0030078C00300788001FC
:104C10000030000000000000000000000000000064
:104C200000000000000000000000180000003C0030
:104C300000003C0000001800000000000000000020
:104C40000000000000000000000000000000000064
:104C50000000000000000000000000000000000054
:104C60000000000000000000000000000000000044
:104C70000000000000000000000000000000000034
:104C800000300000007800000078000000300000D4
:104C90000000000000000000000000000000000014
:104CA00030000000780000007800000030000000B4
:104CB000000000000000000060000000F0000000A4
:104CC000F000000060000000000000000000000094
:104CD00000000000000000000000000000300000A4
:104CE00000780000007800000030000000000000A4
:104CF00000000000000000000000000000000000B4
:104D000000000000000000000000000000000000A3
:104D10000000000000000000000000000000000093
:104D20000000000000000000000000000000000083
:104D3000000000000000000000000000000018005B
:104D400000003C0000003C000000180000000000D3
:104D50000000000000000000000000000000000053
:104D60000000000000000000000000000000000043
:104D70000000000000000000000000000000000033
:104D80000000000000000000000000000000000023
:104D900000000000000000000000000000000C0007
:104DA00000001E0000001E0000000C0000000000BB
:104DB00000000000000000000000000000000000F3
:104DC00000000000000000000000000000000000E3
:104DD00000000000000000000000000000000000D3
:104DE000000000000000180000003C0000003C0033
:104DF000000018000000000000000000000000009B
:104E000000000000000000000000000000000000A2
:104E10000000000000000000000000000000000092
:104E20000000000000000000000000000000000082
:104E30000000000000300000007800000078000052
:104E40000030000000000000000000000000000032
:104E50000000000000000000000000000000000052
:104E60000000000000000000000000000000000042
:104E70000000000000000000000000000000000032
:104E80000000000000000000000000000000000022
:104E90000000000000000000000000000000000012
:104EA000000000000000000000300000007800005A
:104EB000007800000030000000000000000000004A
:104EC00000000000000000000000000000000000E2
:104ED00000000C0000001E0000601E0000F00C002E
:104EE00000F0000000600000000000000000000072
:104EF00000000000000000000000000000000000B2
:104F000000000000000000000000000000000000A1
:104F100000000000000000000000000000000C0085
:104F200000001E0000001E0000000C000000000039
:104F300000000000000000000030000000780000C9
:104F400000780000003000000000000000000000B9
:104F50000000000000000000000000000000000051
:104F60000000000000000000000000000000000041
:104F70000000000000000000000000000000000031
:104F80000000000000000080010000C0030000C01D
:104F9000030000800100000000000000000000C0CD
:104FA000000000E0010000E0010000C0000000007F
:104FB00000000000000000000000000000000000F1
:104FC00000000000000000000000000000000000E1
:104FD00000000000000000000000000000000000D1
:104FE00000000000000000000000000000000000C1
:104FF00000000000000000000000000000000000B1
:1050000000000000000000000000000000000000A0
:105010000000000000000000000000000030000060
:105020000078000000780000003000000000000060
:105030000000000000000000000000000000180058
:1050400000003C0000003C000000180000000000D0
:105050000000000000000000000000000000000050
:105060000000000000000000000000000000000040
:105070000000000000000000000000000000000030
:105080000000000000000000000000000000000020
:105090000000000000000000000000000000000010
:1050A00000000000000000000C0006001E000F00C1
:1050B0001E000F000C0006000000000000000000B1
:1050C00000000000000000000000000000000000E0
:1050D00000000000000000000000000000000000D0
:1050E00000000000000000000000000000000000C0
:1050F000000000C0000000E0010000E0010000C06E
:105100000000000000000000180000003C0000004B
:105110003C0000001800000000000000000000003B
:10512000000000000000000000000000000000007F
:105130000000000000000000180000003C0000001B
:105140003C0000001800000000000000000000000B
:10515000000000000000000000000000000000004F
:10516000000000000000000000000000000000003F
:10517000000000000000000000000000000000002F
:10518000000000000000000000000000000000001F
:10519000000000000000000000000000000000000F
:1051A00000000000000000000000000000180000E7
:1051B000003C0000003C000000180000000000005F
:1051C0000000000000000C0000001E0000001E0097
:1051D00000000C00000000000000000000000000C3
:1051E000000000000030000000780000007800009F
:1051F000003000000000000000000000000000007F
:10520000000000000000000000000000000000009E
:10521000000000000000000000000000000000008E
:10522000000000000000000000000000000000007E
:10523000000000000000000000000000000000006E
:10524000000000000060000000F0000000F000001E
:1052500000600000000000000000000000000000EE
:10526000000000000000000000000000000000003E
:10527000000000000000000000000000000000002E
:105280000000000000000000000000001800000006
:105290003C0000003C00000018000000000000007E
:1052A00000000000000000000000000000000000FE
:1052B00000000000000000000000000000000000EE
:1052C00000000000000000000000000000000000DE
:1052D00000000000000000000000000000000000CE
:1052E00000000000000000000000000000000000BE
:1052F00000000000000000000000000000000000AE
:105300000000000000180000003C0C00003C1E00E3
:1053100000181E0000000C0000000000000000004B
:10532000000000000000000000000000000000007D
:1053300000000000000000000000180000003C0019
:1053400000003C00000018000060000000F00000B9
:1053500000F00000006000000000000000000000FD
:1053600000000000000000000000000006000C002B
:105370000F001E000F001E0006000C0000000000C1
:10538000000000000000000000000000000000001D
:10539000000C0000001E0000001E0000000C0000B9
:1053A00000000000000000000000000000000000FD
:1053B00000000000000000000000000000000000ED
:1053C0000000000000000000300000007800000035
:1053D0007800000030000000000000000000000025
:1053E00000000000000000000000000000000000BD
:1053F000000000000000000080010000C003000069
:10540000C003000080010300000007000000070047
:10541000000003000060000000F0000000F0000049
:10542000006000000000000000000000000000001C
:10543000000000000000000000000000000000006C
:105440000000000000000080010000C0030000C058
:1054500003000080010000000000000000000000C8
:10546000000000000000000000000000000000003C
:10547000000000000000000000000000000000002C
:10548000000000000000000000000000000000001C
:10549000000000000000000000000000000000000C
:1054A00000000000000000000000000000000000FC
:1054B00000000000000000000000000000000000EC
:1054C00000000000000000000000000000000000DC
:1054D00000000000000000000000000000000000CC
:1054E00000000000000000000000000000000000BC
:1054F00000000000000000000000000000000000AC
:10550000000380018007C0038007C00300038001FF
:10551000000000000000000000000000000000008B
:10552000000000000000000000001800000C3C001B
:10553000001E3C00001E1800000C000000000000CF
:1055400000000000000000000000000000006000FB
:105550000000F0000000F000000C6000001E0000E1
:10556000001E0000000C0000000000000000000011
:10557000000000000000000000000000000000002B
:10558000000000000000000000000000000000001B
:10559000000000000000000000000000000000000B
:1055A00000000000000000000000000000000000FB
:1055B00000000000000000000000000000000000EB
:1055C00000000000000000000000000000000000DB
:1055D000000000000000000000000000003000009B
:1055E000007800000078000000300000000000009B
:1055F00000000000000000000000000000000000AB
:105600000000000000000000000000000000180082
:1056100000003C0000003C000000180000000000FA
:1056200000000000000000000060000000F000002A
:1056300000F000000060000000000000000000001A
:10564000000000000000060000000F0000000F0036
:105650000000060000000000000000000000000044
:10566000000000000000000000000000000000003A
:10567000000000000000000000000000000000002A
:10568000000000000000000000000000000000001A
:10569000000000000000000000000000000000000A
:1056A00000000000003000000078000000780000DA
:1056B00000300000000000000000000000000003B7
:1056C00000188007003C8007003C00030018000021
:1056D00000000000000000000000000000000000CA
:1056E00000000000000000000000000000000000BA
:1056F000000000000000180000003C0000003C001A
:105700000000180000000000000000000000000081
:105710000000000000000000000000000000000089
:105720000000000000000000000000000000000079
:105730000000000000000000000000000000000069
:105740000000000000000000000000000000000059
:105750000000000000000000000000000000000049
:105760000000000000000000000000000000000039
:105770000000000000000000000000000000000029
:105780000000000000000000000000000000000019
:105790000000000000000000000000000000000009
:1057A00000000000000000000000000000000000F9
:1057B00000000000000000000000000000000000E9
:1057C00000000000000000000000000000000000D9
:1057D000000000C0070000C0070000C0070000C0B4
:1057E000070000C0070000000000000000000000EB
:1057F00000000000000000000000000000000000A9
:105800000000000000000000000000000000000098
:105810000000000000000000000000000000000088
:105820000000000000000000000000000000000078
:1058300000000000800F0000800F0000800F0000BB
:10584000800F0000800F000000000000000000003A
:105850000000000000000000000000000000000048
:105860000000000000000000000000000000000038
:105870000000F0010000F0010000F0010000F00164
:105880000000F00100000000000000000000000027
:105890000000000000000000000000000000000008
:1058A00000000000000000000000000000000000F8
:1058B00000000000800F0000800F0000800F00003B
:1058C000800F0000800F00000000000000000000BA
:1058D000000000C0070000C0070000C0070000C0B3
:1058E000070000C0070000000000000000000000EA
:1058F0000000F0010000F0010000F0010000F001E4
:105900000000F001000000000000000000000000A6
:105910000000000000000000000000000000000087
:105920000000000000000000000000000000000077
:105930000000F001800FF001800FF001800FF001F6
:10594000800FF001800F0000000000000000000048
:105950000000000000000000000000000000000047
:105960000000000000000000000000000000000037
:105970000000F001800FF001800FF001800FF001B6
:10598000800FF001800F0000000000000000000008
:105990000000000000000000000000000000000007
:1059A00000000000000000000000000000000000F7
:1059B0000000F001800FF001800FF001800FF00176
:1059C000800FF001800F00000000000000000000C8
:1059D000000000C0070000C0070000C0070000C0B2
:1059E000070000C0070000000000000000000000E9
:1059F0000000F001800FF001800FF001800FF00136
:105A0000800FF001800F0000000000000000000087
:105A10000000000000000000000000000000000086
:105A200000000000000000000000E003E003E003CD
:105A3000E003E003E003E003E003E003E003000031
:105A40000000000000000000000000000000000056
:105A50000000E003E003E003E003E003E003E00311
:105A6000E003E003E003000000000000000000008D
:105A7000000000000000E003E003E003E003E003B7
:105A8000E003E003E003E003E003000000000000A7
:105A900000000000000000000000188CA66AA68E1E
:105AA00095EF63F056C003F055C002F054C001F00A
:105AB00053C000F0410E096EC60E086E4E0E076E02
:105AC0006D0E066E8FEC00F003C020F002C01FF0D8
:105AD00001C01EF000C01DF0390E1D24536E300EA3
